:0A09300000010202030304040505A0
:1002B700E4F513F512F511F510C203C200C202C22C
:1002C700011207287E067F008E238F24752B067563
:1002D7002C1275210675221C752906752A4A752D5B
:1002E70006752E78EE54C070030203B875140075B6
:1002F70015808E168F17C3749A9FFF74069ECF249E
:1003070002CF3400FEE48F0F8E0EF50DF50CF50BC2
:10031700F50AF509F508AF0FAE0EAD0DAC0CAB0B3A
:10032700AA0AA909A808C31209145033E517250B0F
:10033700F582E516350AF583E0FFE515250BF5820D
:10034700E514350AF583EFF0E50B2401F50BE435E9
:100357000AF50AE43509F509E43508F50880B78593
:10036700142385152474002480FF740634FFFEC30C
:10037700E52C9FF52CE52B9EF52BC3E5269FF5264F
:10038700E5259EF525C3E5289FF528E5279EF52752
:10039700C3E5229FF522E5219EF521C3E52A9FF5B6
:1003A7002AE5299EF529C3E52E9FF52EE52D9EF515
:1003B7002DD2E843D82090E668E04409F090E65C47
:1003C700E0443DF0D2AF90E680E020E105D2041290
:1003D700081390E680E054F7F0538EF8C203120337
:0B03E700F23001FA120080C20180F326
:0B09250090E50DE030E402C322D32275
:1000800090E6B9E0700302013F1470030201BC2442
:10009000FE700302023F24FB700302013914700357
:1000A00002013314700302012714700302012D248E
:1000B0000560030202A312095440030202AF90E656
:1000C000BBE024FE602714603824FD601114602713
:1000D00024067050E52390E6B3F0E524803C120935
:1000E00025503EE52B90E6B3F0E52C802DE52590DC
:1000F000E6B3F0E5268023E52790E6B3F0E5288017
:100100001990E6BAE0FF120842AA06A9077B01EAA5
:10011000494B600DEE90E6B3F0EF90E6B4F00202CA
:10012000AF02029E02029E1208F10202AF120942C1
:100130000202AF12093A0202AF1208DF0202AF1246
:10014000095640030202AF90E6B8E0247F60151420
:10015000601924027063A200E43325E0FFA202E4E8
:10016000334F8041E490E740F0803F90E6BCE0549C
:100170007EFF7E00E0D394807C0040047D018002FD
:100180007D00EC4EFEED4F2430F58274093EF58380
:10019000E493FF3395E0FEEF24A1FFEE34E68F8277
:1001A000F583E0540190E740F0E4A3F090E68AF094
:1001B00090E68B7402F00202AF02029E12095840D0
:1001C000030202AF90E6B8E024FE6016240260034A
:1001D0000202AF90E6BAE0B40105C2000202AF022B
:1001E000029E90E6BAE0705590E6BCE0547EFF7E39
:1001F00000E0D394807C0040047D0180027D00EC0F
:100200004EFEED4F2430F58274093EF583E493FFF2
:100210003395E0FEEF24A1FFEE34E68F82F583E014
:1002200054FEF090E6BCE05480131313541FFFE01B
:10023000540F2F90E683F0E04420F08072805F122C
:10024000095A506B90E6B8E024FE60192402704E03
:1002500090E6BAE0B40104D200805490E6BAE064BB
:1002600002604C803990E6BCE0547EFF7E00E0D313
:1002700094807C0040047D0180027D00EC4EFEED08
:100280004F2430F58274093EF583E493FF3395E003
:10029000FEEF24A1FFEE34E68F82F583800D90E619
:1002A000A0800812095C500790E6A0E04401F0909D
:0602B000E6A0E04480F02E
:0102B6002225
:0300330002094A75
:04094A0053D8EF325D
:03094E00011E0087
:1007280090E600E054E74410F000000090E601E095
:100738004440F000000090E61274A2F0000000901F
:10074800E61474E2F000000090E61374A2F00000D2
:100758000090E61574E2F000000090E6917480F0D5
:10076800000000F000000090E695F0000000F000A6
:10077800000043AF0190E65CE090E65E74F0F0752F
:03078800B6FF2297
:1003F200E5AA20E066E5AA20E56174F0F59A7400AA
:10040200F59B74F8F59D7400F59E90E690E0FE90E1
:10041200E691E07C002400F51BEC3EF51AE4F518A9
:10042200F519C3E519951BE518951A501290E67B4C
:10043200E090E67CF00519E51970E7051880E39075
:10044200E690E090E698F000000090E691E090E6F9
:1004520099F000000090E6917480F0E5AA20E2662F
:10046200E5AA20E76174F4F59A7400F59B74FCF533
:100472009D7400F59E90E694E0FE90E695E07C0087
:100482002400F51BEC3EF51AE4F518F519C3E5193D
:10049200951BE518951A501290E67BE090E67CF0E9
:1004A2000519E51970E7051880E390E694E090E6F7
:1004B2009CF000000090E695E090E69DF0000000C0
:0604C20090E6957480F045
:0104C8002211
:0205FE00D32206
:02095200D322AE
:02095400D322AC
:08093A0090E6BAE0F51DD3229E
:1008DF0090E740E51DF0E490E68AF090E68B04F097
:0208EF00D32212
:0809420090E6BAE0F51CD32297
:1008F10090E740E51CF0E490E68AF090E68B04F086
:02090100D322FF
:02095600D322AA
:02095800D322A8
:02095A00D322A6
:02095C00D322A4
:10086D00C0E0C083C082D2015391EF90E65D740168
:08087D00F0D082D083D0E032FC
:10089D00C0E0C083C0825391EF90E65D7404F0D048
:0608AD0082D083D0E0328E
:1008B300C0E0C083C0825391EF90E65D7402F0D034
:0608C30082D083D0E03278
:1004C900C0E0C083C082852925852A2685268285A4
:1004D9002583A37402F08521278522288528828512
:1004E9002783A37407F05391EF90E65D7410F0D061
:0604F90082D083D0E03246
:10088500C0E0C083C082D2035391EF90E65D740847
:08089500F0D082D083D0E032E4
:1007D600C0E0C083C08290E680E030E72085212516
:1007E600852226852682852583A37402F0852927FE
:1007F600852A28852882852783A37407F05391EFDD
:0D08060090E65D7420F0D082D083D0E03207
:0104FF0032CA
:01095E003266
:01095F003265
:010960003264
:010961003263
:010962003262
:10078B00C0E0C083C082C0D075D000C007E51E603A
:10079B001453B1F743B104E51E70047F0180027F4F
:1007AB00008F1E801253B1FB43B108E51E70047F0E
:1007BB000180027F008F1E5391EF90E65F7410F063
:0B07CB00D007D0D0D082D083D0E03225
:010963003261
:010964003260
:01096500325F
:01096600325E
:01096700325D
:01096800325C
:01096900325B
:01096A00325A
:1008C900C0E0C083C0825391EF90E65F7440F0D0DE
:0608D90082D083D0E03262
:01096B003259
:01096C003258
:01096D003257
:01096E003256
:01096F003255
:010970003254
:010971003253
:010972003252
:010973003251
:010974003250
:01097500324F
:01097600324E
:01097700324D
:01097800324C
:01097900324B
:01097A00324A
:01097B003249
:01097C003248
:01097D003247
:01097E003246
:100600001201000200000040B404F00000000102EA
:1006100000010A06000200000040010009022E004D
:1006200001010080320904000004FF0000000705FA
:10063000020200020007050402000200070586020C
:100640000002000705880200020009022E000101D5
:100650000080320904000004FF00000007050202C8
:100660004000000705040240000007058602400024
:10067000000705880240000004030904100343003A
:100680007900700072006500730073000E0345006E
:0C0690005A002D005500530042000000ED
:03004300020500B3
:03005300020500A3
:1005000002086D000208B30002089D000208850081
:100510000204C9000207D6000204FF0002095E00BF
:1005200002095F000209600002096100020962001D
:1005300002078B00020963000209640002096500DA
:100540000209660002095E000209670002096800EC
:100550000209690002096A000208C90002096B0069
:1005600002096C0002095E0002095E0002095E00D9
:1005700002096D0002096E0002096F000209700095
:100580000209710002097200020973000209740075
:100590000209750002097600020977000209780055
:1005A0000209790002097A0002097B0002097C0035
:0805B00002097D0002097E0032
:1008130030040990E680E0440AF0800790E680E027
:100823004408F07FDC7E051205B890E65D74FFF0A6
:0F08330090E65FF05391EF90E680E054F7F022EB
:02084200A90704
:10084400AE2DAF2E8F828E83A3E064037017AD01AB
:1008540019ED7001228F828E83E07C002FFDEC3E27
:08086400FEAF0580DFE4FEFF9A
:01086C002269
:1005B8008E188F1990E600E054187012E51924017E
:1005C800FFE43518C313F518EF13F519801590E6F5
:1005D80000E05418FFBF100BE51925E0F519E518E0
:1005E80033F518E5191519AE18700215184E60057F
:0605F80012090380EE224F
:100903007400F58690FDA57C05A3E582458370F907
:0109130022C1
:0300000002069C59
:0C069C00787FE4F6D8FD75812E0206E39D
:10091400EB9FF5F0EA9E42F0E99D42F0E89C45F039
:0109240022B0
:1006A8000202B7E493A3F8E493A34003F68001F2AF
:1006B80008DFF48029E493A3F85407240CC8C33353
:1006C800C4540F4420C8834004F456800146F6DF22
:1006D800E4800B010204081020408090094EE47E5B
:1006E800019360BCA3FF543F30E509541FFEE49317
:1006F800A360010ECF54C025E060A840B8E493A3DE
:10070800FAE493A3F8E493A3C8C582C8CAC583CA08
:10071800F0A3C8C582C8CAC583CADFE9DEE780BEC0
:0109510000A5
:00000001FF
