:100100001201000200000040B404041000000102CB
:1001100000010A0600020000004001000902190067
:10012000010100A0320904000001FF0000000705E2
:10013000860200020009022000010100A032090429
:10014000000002FF00000007050202400000070552
:100150008602400000040309041003430079007084
:100160000072006500730073007C0345005A002D87
:100170000055005300420020004600580032002085
:10018000004700500049004600200074006F002026
:100190000045007800740020004600490046004FEA
:1001A0000020004500780061006D0070006C006563
:1001B0000020007500730069006E00670020005386
:1001C0000069006E0067006C00650020005400723A
:1001D0000061006E00730061006300740069006FCD
:0701E000006E007300000037
:0A074800000102020303040405058A
:10041E00E4F513F512F511F510C203C200C202C2C3
:10042E00011200567E017F008E238F24752B0175DD
:10043E002C1275210175221C752901752A35752D11
:10044E0001752E55EE54C0700302051F751400750C
:10045E0015808E168F17C374E59FFF74019ECF24EF
:10046E0002CF3400FEE48F0F8E0EF50DF50CF50B5A
:10047E00F50AF509F508AF0FAE0EAD0DAC0CAB0BD2
:10048E00AA0AA909A808C31207375033E517250B86
:10049E00F582E516350AF583E0FFE515250BF582A5
:1004AE00E514350AF583EFF0E50B2401F50BE43581
:1004BE000AF50AE43509F509E43508F50880B7852B
:1004CE00142385152474002480FF740134FFFEC3A9
:1004DE00E52C9FF52CE52B9EF52BC3E5269FF526E7
:1004EE00E5259EF525C3E5289FF528E5279EF527EA
:1004FE00C3E5229FF522E5219EF521C3E52A9FF54E
:10050E002AE5299EF529C3E52E9FF52EE52D9EF5AC
:10051E002DD2E843D82090E668E04409F090E65CDE
:10052E00E0443DF0D2AF90E680E020E105D2041227
:10053E00000390E680E054F7F0538EF8C2031200E9
:0B054E00323001FA1201E7C20180F315
:0B00460090E50DE030E402C322D3225D
:1001E70090E6B9E070030202A61470030203232409
:1001F700FE70030203A624FB70030202A01470031F
:1002070002029A14700302028E14700302029424ED
:1002170005600302040A120760400302041690E611
:10022700BBE024FE602714603824FD6011146027AA
:1002370024067050E52390E6B3F0E524803C1200D5
:1002470046503EE52B90E6B3F0E52C802DE5259052
:10025700E6B3F0E5268023E52790E6B3F0E52880AE
:100267001990E6BAE0FF1205CCAA06A9077B01EAB6
:10027700494B600DEE90E6B3F0EF90E6B4F0020460
:100287001602040502040512071402041612075287
:100297000204161205F70204161200ED02041612E4
:1002A7000762400302041690E6B8E0247F60151445
:1002B700601924027063A200E43325E0FFA202E480
:1002C700334F8041E490E740F0803F90E6BCE05434
:1002D7007EFF7E00E0D394807C0040047D01800295
:1002E7007D00EC4EFEED4F2448F58274073EF58302
:1002F700E493FF3395E0FEEF24A1FFEE34E68F820F
:10030700F583E0540190E740F0E4A3F090E68AF02B
:1003170090E68B7402F0020416020405120764408B
:100327000302041690E6B8E024FE60162402600378
:1003370002041690E6BAE0B40105C20002041602F0
:10034700040590E6BAE0705590E6BCE0547EFF7E67
:1003570000E0D394807C0040047D0180027D00ECA6
:100367004EFEED4F2448F58274073EF583E493FF74
:100377003395E0FEEF24A1FFEE34E68F82F583E0AC
:1003870054FEF090E6BCE05480131313541FFFE0B3
:10039700540F2F90E683F0E04420F08072805F12C4
:1003A7000766506B90E6B8E024FE60192402704E91
:1003B70090E6BAE0B40104D200805490E6BAE06453
:1003C70002604C803990E6BCE0547EFF7E00E0D3AB
:1003D70094807C0040047D0180027D00EC4EFEEDA0
:1003E7004F2448F58274073EF583E493FF3395E085
:1003F700FEEF24A1FFEE34E68F82F583800D90E6B1
:10040700A08008120768500790E6A0E04401F0902A
:06041700E6A0E04480F0C5
:01041D0022BC
:0300330002075A67
:04075A0053D8EF324F
:1000560090E600E054E74410F000000090E601E06E
:1000660044CBF000000090E60B7403F00000009013
:10007600E61474E0F000000090E6047480F00000DE
:10008600007486F0000000E4F000000090E61A74A8
:100096000CF0000000E490E671F075B4FF43AF0188
:0100A6002237
:0100320022AB
:02005100D322B8
:02075E00D322A4
:02076000D322A2
:0805F70090E6BAE0F51BD322E7
:1000ED0090E740E51BF0E490E68AF090E68B04F093
:0200FD00D3220C
:0807520090E6BAE0F51AD3228B
:1007140090E740E51AF0E490E68AF090E68B04F066
:02072400D322DE
:02076200D322A0
:02076400D3229E
:02076600D3229C
:02076800D3229A
:1006B800C0E0C083C082D2015391EF90E65D74011F
:0806C800F0D082D083D0E032B3
:1006E800C0E0C083C0825391EF90E65D7404F0D0FF
:0606F80082D083D0E03245
:1006FE00C0E0C083C0825391EF90E65D7402F0D0EB
:06070E0082D083D0E0322E
:10059600C0E0C083C082852925852A2685268285D6
:1005A6002583A37402F08521278522288528828544
:1005B6002783A37407F05391EF90E65D7410F0D093
:0605C60082D083D0E03278
:1006D000C0E0C083C082D2035391EF90E65D7408FE
:0806E000F0D082D083D0E0329B
:10055900C0E0C083C08290E680E030E72085212595
:10056900852226852682852583A37402F08529277D
:10057900852A28852882852783A37407F05391EF5C
:0D05890090E65D7420F0D082D083D0E03287
:01004200328B
:0100FF0032CE
:0105FF0032C9
:01076A00325C
:01076B00325B
:01076C00325A
:01076D003259
:01076E003258
:01076F003257
:010770003256
:010771003255
:010772003254
:010773003253
:010774003252
:010775003251
:010776003250
:01077700324F
:01077800324E
:01077900324D
:01077A00324C
:01077B00324B
:01077C00324A
:01077D003249
:01077E003248
:01077F003247
:010780003246
:010781003245
:010782003244
:010783003243
:010784003242
:010785003241
:010786003240
:01078700323F
:01078800323E
:01078900323D
:01078A00323C
:03004300020600B2
:03005300020600A2
:100600000206B8000206FE000206E8000206D0005C
:100610000205960002055900020042000200FF0098
:100620000205FF0002076A0002076B0002076C0068
:1006300002076D0002076E0002076F0002077000DC
:10064000020771000200FF00020772000207730038
:1006500002077400020775000207760002077700A0
:10066000020778000200FF000200FF000200FF0006
:100670000207790002077A0002077B0002077C006C
:1006800002077D0002077E0002077F00020780004C
:10069000020781000207820002078300020784002C
:1006A000020785000207860002078700020788000C
:0806B0000207890002078A001D
:1000030030040990E680E0440AF0800790E680E03F
:100013004408F07FDC7E051200A790E65D74FFF0D4
:0F00230090E65FF05391EF90E680E054F7F02203
:0205CC00A9077D
:1005CE00AE2DAF2E8F828E83A3E064037017AD0124
:1005DE0019ED7001228F828E83E07C002FFDEC3EA0
:0805EE00FEAF0580DFE4FEFF13
:0105F60022E2
:1000A7008E188F1990E600E054187012E519240194
:1000B700FFE43518C313F518EF13F519801590E60B
:1000C70000E05418FFBF100BE51925E0F519E518F6
:1000D70033F518E5191519AE18700215184E600595
:0600E70012072680EE2244
:100726007400F58690FDA57C05A3E582458370F9E6
:0107360022A0
:03000000020036C5
:0C003600787FE4F6D8FD75812E02041ED0
:10073700EB9FF5F0EA9E42F0E99D42F0E89C45F018
:01074700228F
:00000001FF
