:0300000002013EBC
:0C013E00787FE4F6D8FD75810F02018582
:0C029C00010800010900010B00010A002C
:10028100D2AFC294D293D292D291C29075800043E0
:0B02910080FE7F147E001201CA80FE78
:03000B0002022BC3
:10022B00C0E0C0D0C28D85088C85098A050BE50B13
:10023B00C39432403C750B00B280050AE50A940A60
:10024B0050085380014380FC8027E50AC394145067
:10025B00085380014380FA8018E50AC394165008AE
:10026B005380014380F68009750A00538001438057
:06027B00FED0D0D0E032FD
:1001CA00750F00750E10750D0E750C00E4FCFDAB75
:1001DA000FAA0EA90DA80C12000EE47BE87A03F907
:1001EA00F81200998F0F8E0E8D0D8C0CC3E4950FAB
:1001FA00F50FE4950EF50E7401950DF50DE4950CC9
:10020A00F50CAF0FAE0EAD0DFC780812012B8F085E
:10021A00850F0985088C85098A758901D2A9D28C2E
:01022A0022B1
:10014A00020281E493A3F8E493A34003F68001F248
:10015A0008DFF48029E493A3F85407240CC8C333B6
:10016A00C4540F4420C8834004F456800146F6DF85
:10017A00E4800B010204081020408090029CE47E77
:10018A00019360BCA3FF543F30E509541FFEE4937A
:10019A00A360010ECF54C025E060A840B8E493A341
:1001AA00FAE493A3F8E493A3C8C582C8CAC583CA6C
:1001BA00F0A3C8C582C8CAC583CADFE9DEE780BE24
:0102A8000055
:10000E00E88FF0A4CC8BF0A42CFCE98EF0A42CFC91
:10001E008AF0EDA42CFCEA8EF0A4CDA8F08BF0A40F
:10002E002DCC3825F0FDE98FF0A42CCD35F0FCEB6E
:10003E008EF0A4FEA9F0EB8FF0A4CFC5F02ECD3933
:0F004E00FEE43CFCEAA42DCE35F0FDE43CFC22A0
:10005D0075F008758200EF2FFFEE33FECD33CDCC5A
:10006D0033CCC58233C5829BED9AEC99E5829840DD
:10007D000CF582EE9BFEED9AFDEC99FC0FD5F0D6BA
:10008D00E4CEFBE4CDFAE4CCF9A88222B800C1B9E4
:10009D000059BA002DEC8BF084CFCECDFCE5F0CB22
:1000AD00F97818EF2FFFEE33FEED33FDEC33FCEB5B
:1000BD0033FB10D703994004EB99FB0FD8E5E4F916
:1000CD00FA227818EF2FFFEE33FEED33FDEC33FC03
:1000DD00C933C910D7059BE99A4007EC9BFCE99AF7
:1000ED00F90FD8E0E4C9FAE4CCFB2275F010EF2F3C
:1000FD00FFEE33FEED33FDCC33CCC833C810D7073C
:10010D009BEC9AE899400AED9BFDEC9AFCE899F876
:0E011D000FD5F0DAE4CDFBE4CCFAE4C8F92209
:10012B00E8600FECC313FCED13FDEE13FEEF13FFB2
:03013B00D8F122D6
:00000001FF
