:0300000002013EBC
:0C013E00787FE4F6D8FD75810E02018583
:09026500010C00010D00010E0066
:10025000D2AFC294D293D292D291C2907F147E0038
:050260001201CA80FE3E
:03000B00020231BD
:10023100C0E0C0D0C28D850C8C850D8A050EE50EFF
:0F024100C394324005750E00B280D0D0D0E032A9
:1001CA00E4F50BF50AF509F508F50B750A1075093A
:1001DA000EF508FCFDAB0BAA0AA909A80812000E25
:1001EA00E47BE87A03F9F81200998F0B8E0A8D09DD
:1001FA008C08C3E4950BF50BE4950AF50A7401958E
:10020A0009F509E49508F508AF0BAE0AAD09FC78C3
:10021A000812012B8F0C850B0D758901850C8C85B5
:06022A000D8AD2A9D28C5E
:0102300022AB
:10014A00020250E493A3F8E493A34003F68001F279
:10015A0008DFF48029E493A3F85407240CC8C333B6
:10016A00C4540F4420C8834004F456800146F6DF85
:10017A00E4800B0102040810204080900265E47EAE
:10018A00019360BCA3FF543F30E509541FFEE4937A
:10019A00A360010ECF54C025E060A840B8E493A341
:1001AA00FAE493A3F8E493A3C8C582C8CAC583CA6C
:1001BA00F0A3C8C582C8CAC583CADFE9DEE780BE24
:01026E00008F
:10000E00E88FF0A4CC8BF0A42CFCE98EF0A42CFC91
:10001E008AF0EDA42CFCEA8EF0A4CDA8F08BF0A40F
:10002E002DCC3825F0FDE98FF0A42CCD35F0FCEB6E
:10003E008EF0A4FEA9F0EB8FF0A4CFC5F02ECD3933
:0F004E00FEE43CFCEAA42DCE35F0FDE43CFC22A0
:10005D0075F008758200EF2FFFEE33FECD33CDCC5A
:10006D0033CCC58233C5829BED9AEC99E5829840DD
:10007D000CF582EE9BFEED9AFDEC99FC0FD5F0D6BA
:10008D00E4CEFBE4CDFAE4CCF9A88222B800C1B9E4
:10009D000059BA002DEC8BF084CFCECDFCE5F0CB22
:1000AD00F97818EF2FFFEE33FEED33FDEC33FCEB5B
:1000BD0033FB10D703994004EB99FB0FD8E5E4F916
:1000CD00FA227818EF2FFFEE33FEED33FDEC33FC03
:1000DD00C933C910D7059BE99A4007EC9BFCE99AF7
:1000ED00F90FD8E0E4C9FAE4CCFB2275F010EF2F3C
:1000FD00FFEE33FEED33FDCC33CCC833C810D7073C
:10010D009BEC9AE899400AED9BFDEC9AFCE899F876
:0E011D000FD5F0DAE4CDFBE4CCFAE4C8F92209
:10012B00E8600FECC313FCED13FDEE13FEEF13FFB2
:03013B00D8F122D6
:00000001FF
